{
  "contractName": "FarmToken",
  "abi": [
    {
      "inputs": [],
      "payable": false,
      "stateMutability": "nonpayable",
      "type": "constructor"
    },
    {
      "constant": true,
      "inputs": [],
      "name": "totalSupply",
      "outputs": [
        {
          "internalType": "uint256",
          "name": "",
          "type": "uint256"
        }
      ],
      "payable": false,
      "stateMutability": "view",
      "type": "function"
    }
  ],
  "bytecode": "0x6080604052348015600f57600080fd5b506305f5e1006000819055506084806100296000396000f3fe6080604052348015600f57600080fd5b506004361060285760003560e01c806318160ddd14602d575b600080fd5b60336049565b6040518082815260200191505060405180910390f35b6000548156fea265627a7a7231582086d09ea8cac14d0ff06f3c936d4bfae0f653f0ebc9a57ac6f30b27a7eaa30fb664736f6c63430005100032",
  "source": "pragma solidity >=0.4.21 <0.7.0;\n// pragma solidity ^0.5.16; // our local truffle compiler version: is 0.5.16+commit.9c3226ce.Emscripten.clang\n\n\ncontract FarmToken{\n\n// Constructor\n// set total token\n// get total token\n\n\nuint256 public totalSupply; // storage \n\nconstructor () public {\n// Constructor, same name as contract makes it constructor..\n     totalSupply = 100000000; // >> state variable, writes to disk in blockchain\n\n\n\n}\n\n\n\n\n}",
  "sourcePath": "/Applications/SMART CONTRACTS/PROJECT/token_sale/contracts/FarmToken.sol",
  "compiler": {
    "name": "solc",
    "version": "0.5.16+commit.9c3226ce.Emscripten.clang"
  },
  "schemaVersion": "3.0.23",
  "updatedAt": "2020-09-01T10:35:55.504Z",
  "networkType": "ethereum",
  "devdoc": {
    "methods": {}
  },
  "userdoc": {
    "methods": {}
  }
}